{"@oasisprotocol/sapphire-contracts/contracts/Subcall.sol":{"Subcall":{"abi":[{"inputs":[{"internalType":"uint64","name":"status","type":"uint64"},{"internalType":"string","name":"data","type":"string"}],"name":"AccountsTransferError","type":"error"},{"inputs":[{"internalType":"uint64","name":"status","type":"uint64"},{"internalType":"string","name":"data","type":"string"}],"name":"ConsensusDelegateError","type":"error"},{"inputs":[{"internalType":"uint64","name":"status","type":"uint64"},{"internalType":"string","name":"data","type":"string"}],"name":"ConsensusTakeReceiptError","type":"error"},{"inputs":[{"internalType":"uint64","name":"status","type":"uint64"},{"internalType":"string","name":"data","type":"string"}],"name":"ConsensusUndelegateError","type":"error"},{"inputs":[{"internalType":"uint64","name":"status","type":"uint64"},{"internalType":"string","name":"data","type":"string"}],"name":"ConsensusWithdrawError","type":"error"},{"inputs":[],"name":"InvalidKey","type":"error"},{"inputs":[{"internalType":"uint256","name":"","type":"uint256"}],"name":"InvalidLength","type":"error"},{"inputs":[],"name":"InvalidMap","type":"error"},{"inputs":[],"name":"InvalidReceiptId","type":"error"},{"inputs":[{"internalType":"uint8","name":"","type":"uint8"}],"name":"InvalidUintPrefix","type":"error"},{"inputs":[{"internalType":"uint8","name":"","type":"uint8"}],"name":"InvalidUintSize","type":"error"},{"inputs":[],"name":"MissingKey","type":"error"},{"inputs":[{"internalType":"uint64","name":"receiptId","type":"uint64"}],"name":"ParseReceiptError","type":"error"},{"inputs":[],"name":"RoflOriginNotAuthorizedForApp","type":"error"},{"inputs":[],"name":"SubcallError","type":"error"},{"inputs":[],"name":"TokenNameTooLong","type":"error"},{"inputs":[],"name":"ValueOutOfRange","type":"error"},{"inputs":[{"internalType":"bytes","name":"result","type":"bytes"},{"internalType":"uint256","name":"offset","type":"uint256"}],"name":"_parseCBORUint","outputs":[{"internalType":"uint256","name":"newOffset","type":"uint256"},{"internalType":"uint256","name":"value","type":"uint256"}],"stateMutability":"pure","type":"function"},{"inputs":[{"internalType":"bytes","name":"result","type":"bytes"},{"internalType":"uint256","name":"offset","type":"uint256"}],"name":"_parseCBORUint128","outputs":[{"internalType":"uint256","name":"newOffset","type":"uint256"},{"internalType":"uint128","name":"value","type":"uint128"}],"stateMutability":"pure","type":"function"},{"inputs":[{"internalType":"bytes","name":"result","type":"bytes"},{"internalType":"uint256","name":"offset","type":"uint256"}],"name":"_parseCBORUint64","outputs":[{"internalType":"uint256","name":"newOffset","type":"uint256"},{"internalType":"uint64","name":"value","type":"uint64"}],"stateMutability":"pure","type":"function"}],"evm":{"bytecode":{"linkReferences":{},"object":"6108c3610053600b82828239805160001a607314610046577f4e487b7100000000000000000000000000000000000000000000000000000000600052600060045260246000fd5b30600052607381538281f3fe730000000000000000000000000000000000000000301460806040526004361061004b5760003560e01c806307099c9c146100505780630eb503ca1461008157806321d0f1e4146100b2575b600080fd5b61006a600480360381019061006591906105a8565b6100e3565b604051610078929190610636565b60405180910390f35b61009b600480360381019061009691906105a8565b610149565b6040516100a992919061065f565b60405180910390f35b6100cc60048036038101906100c791906105a8565b6103aa565b6040516100da9291906106b3565b60405180910390f35b60008060006100f28585610149565b809250819450505067ffffffffffffffff801681111561013e576040517f4eb4f9fb00000000000000000000000000000000000000000000000000000000815260040160405180910390fd5b809150509250929050565b6000806000848481518110610161576101606106dc565b5b602001015160f81c60f81b60f81c9050600060178260ff161161019d5760018561018b919061073a565b828060ff1690509350935050506103a3565b60588260ff16036101ed5785856101b39061076e565b955085815181106101c7576101c66106dc565b5b602001015160f81c60f81b60f81c60ff16905084806101e59061076e565b955050610324565b604080831660ff16036102345760408686806102089061076e565b97508151811061021b5761021a6106dc565b5b602001015160f81c60f81b60f81c1860ff169050610323565b601080831660ff16036102e55760188260ff160361025557600190506102d1565b60198260ff160361026957600290506102d0565b601a8260ff160361027d57600490506102cf565b601b8260ff160361029157600890506102ce565b816040517ff32e6aa30000000000000000000000000000000000000000000000000000000081526004016102c591906107d2565b60405180910390fd5b5b5b5b6001856102de919061073a565b9450610322565b816040517f873b12ed00000000000000000000000000000000000000000000000000000000815260040161031991906107d2565b60405180910390fd5b5b5b602081111561036a57806040517fc67eee4b00000000000000000000000000000000000000000000000000000000815260040161036191906107fc565b60405180910390fd5b8486602001015192506008816103809190610817565b61010061038d9190610859565b83901c9250808561039e919061073a565b935050505b9250929050565b60008060006103b98585610149565b80925081945050506fffffffffffffffffffffffffffffffff801681111561040d576040517f4eb4f9fb00000000000000000000000000000000000000000000000000000000815260040160405180910390fd5b809150509250929050565b6000604051905090565b600080fd5b600080fd5b600080fd5b600080fd5b6000601f19601f8301169050919050565b7f4e487b7100000000000000000000000000000000000000000000000000000000600052604160045260246000fd5b61047f82610436565b810181811067ffffffffffffffff8211171561049e5761049d610447565b5b80604052505050565b60006104b1610418565b90506104bd8282610476565b919050565b600067ffffffffffffffff8211156104dd576104dc610447565b5b6104e682610436565b9050602081019050919050565b82818337600083830152505050565b6000610515610510846104c2565b6104a7565b90508281526020810184848401111561053157610530610431565b5b61053c8482856104f3565b509392505050565b600082601f8301126105595761055861042c565b5b8135610569848260208601610502565b91505092915050565b6000819050919050565b61058581610572565b811461059057600080fd5b50565b6000813590506105a28161057c565b92915050565b600080604083850312156105bf576105be610422565b5b600083013567ffffffffffffffff8111156105dd576105dc610427565b5b6105e985828601610544565b92505060206105fa85828601610593565b9150509250929050565b61060d81610572565b82525050565b600067ffffffffffffffff82169050919050565b61063081610613565b82525050565b600060408201905061064b6000830185610604565b6106586020830184610627565b9392505050565b60006040820190506106746000830185610604565b6106816020830184610604565b9392505050565b60006fffffffffffffffffffffffffffffffff82169050919050565b6106ad81610688565b82525050565b60006040820190506106c86000830185610604565b6106d560208301846106a4565b9392505050565b7f4e487b7100000000000000000000000000000000000000000000000000000000600052603260045260246000fd5b7f4e487b7100000000000000000000000000000000000000000000000000000000600052601160045260246000fd5b600061074582610572565b915061075083610572565b92508282019050808211156107685761076761070b565b5b92915050565b600061077982610572565b91507fffffffffffffffffffffffffffffffffffffffffffffffffffffffffffffffff82036107ab576107aa61070b565b5b600182019050919050565b600060ff82169050919050565b6107cc816107b6565b82525050565b60006020820190506107e760008301846107c3565b92915050565b6107f681610572565b82525050565b600060208201905061081160008301846107ed565b92915050565b600061082282610572565b915061082d83610572565b925082820261083b81610572565b915082820484148315176108525761085161070b565b5b5092915050565b600061086482610572565b915061086f83610572565b92508282039050818111156108875761088661070b565b5b9291505056fea2646970667358221220b8c363bbfedfedd488490ecb31f0fcfdf51e742a9013a815a8c6728acd45613364736f6c63430008130033","opcodes":"PUSH2 0x8C3 PUSH2 0x53 PUSH1 0xB DUP3 DUP3 DUP3 CODECOPY DUP1 MLOAD PUSH1 0x0 BYTE PUSH1 0x73 EQ PUSH2 0x46 JUMPI PUSH32 0x4E487B7100000000000000000000000000000000000000000000000000000000 PUSH1 0x0 MSTORE PUSH1 0x0 PUSH1 0x4 MSTORE PUSH1 0x24 PUSH1 0x0 REVERT JUMPDEST ADDRESS PUSH1 0x0 MSTORE PUSH1 0x73 DUP2 MSTORE8 DUP3 DUP2 RETURN INVALID PUSH20 0x0 ADDRESS EQ PUSH1 0x80 PUSH1 0x40 MSTORE PUSH1 0x4 CALLDATASIZE LT PUSH2 0x4B JUMPI PUSH1 0x0 CALLDATALOAD PUSH1 0xE0 SHR DUP1 PUSH4 0x7099C9C EQ PUSH2 0x50 JUMPI DUP1 PUSH4 0xEB503CA EQ PUSH2 0x81 JUMPI DUP1 PUSH4 0x21D0F1E4 EQ PUSH2 0xB2 JUMPI JUMPDEST PUSH1 0x0 DUP1 REVERT JUMPDEST PUSH2 0x6A PUSH1 0x4 DUP1 CALLDATASIZE SUB DUP2 ADD SWAP1 PUSH2 0x65 SWAP2 SWAP1 PUSH2 0x5A8 JUMP JUMPDEST PUSH2 0xE3 JUMP JUMPDEST PUSH1 0x40 MLOAD PUSH2 0x78 SWAP3 SWAP2 SWAP1 PUSH2 0x636 JUMP JUMPDEST PUSH1 0x40 MLOAD DUP1 SWAP2 SUB SWAP1 RETURN JUMPDEST PUSH2 0x9B PUSH1 0x4 DUP1 CALLDATASIZE SUB DUP2 ADD SWAP1 PUSH2 0x96 SWAP2 SWAP1 PUSH2 0x5A8 JUMP JUMPDEST PUSH2 0x149 JUMP JUMPDEST PUSH1 0x40 MLOAD PUSH2 0xA9 SWAP3 SWAP2 SWAP1 PUSH2 0x65F JUMP JUMPDEST PUSH1 0x40 MLOAD DUP1 SWAP2 SUB SWAP1 RETURN JUMPDEST PUSH2 0xCC PUSH1 0x4 DUP1 CALLDATASIZE SUB DUP2 ADD SWAP1 PUSH2 0xC7 SWAP2 SWAP1 PUSH2 0x5A8 JUMP JUMPDEST PUSH2 0x3AA JUMP JUMPDEST PUSH1 0x40 MLOAD PUSH2 0xDA SWAP3 SWAP2 SWAP1 PUSH2 0x6B3 JUMP JUMPDEST PUSH1 0x40 MLOAD DUP1 SWAP2 SUB SWAP1 RETURN JUMPDEST PUSH1 0x0 DUP1 PUSH1 0x0 PUSH2 0xF2 DUP6 DUP6 PUSH2 0x149 JUMP JUMPDEST DUP1 SWAP3 POP DUP2 SWAP5 POP POP POP PUSH8 0xFFFFFFFFFFFFFFFF DUP1 AND DUP2 GT ISZERO PUSH2 0x13E JUMPI PUSH1 0x40 MLOAD PUSH32 0x4EB4F9FB00000000000000000000000000000000000000000000000000000000 DUP2 MSTORE PUSH1 0x4 ADD PUSH1 0x40 MLOAD DUP1 SWAP2 SUB SWAP1 REVERT JUMPDEST DUP1 SWAP2 POP POP SWAP3 POP SWAP3 SWAP1 POP JUMP JUMPDEST PUSH1 0x0 DUP1 PUSH1 0x0 DUP5 DUP5 DUP2 MLOAD DUP2 LT PUSH2 0x161 JUMPI PUSH2 0x160 PUSH2 0x6DC JUMP JUMPDEST JUMPDEST PUSH1 0x20 ADD ADD MLOAD PUSH1 0xF8 SHR PUSH1 0xF8 SHL PUSH1 0xF8 SHR SWAP1 POP PUSH1 0x0 PUSH1 0x17 DUP3 PUSH1 0xFF AND GT PUSH2 0x19D JUMPI PUSH1 0x1 DUP6 PUSH2 0x18B SWAP2 SWAP1 PUSH2 0x73A JUMP JUMPDEST DUP3 DUP1 PUSH1 0xFF AND SWAP1 POP SWAP4 POP SWAP4 POP POP POP PUSH2 0x3A3 JUMP JUMPDEST PUSH1 0x58 DUP3 PUSH1 0xFF AND SUB PUSH2 0x1ED JUMPI DUP6 DUP6 PUSH2 0x1B3 SWAP1 PUSH2 0x76E JUMP JUMPDEST SWAP6 POP DUP6 DUP2 MLOAD DUP2 LT PUSH2 0x1C7 JUMPI PUSH2 0x1C6 PUSH2 0x6DC JUMP JUMPDEST JUMPDEST PUSH1 0x20 ADD ADD MLOAD PUSH1 0xF8 SHR PUSH1 0xF8 SHL PUSH1 0xF8 SHR PUSH1 0xFF AND SWAP1 POP DUP5 DUP1 PUSH2 0x1E5 SWAP1 PUSH2 0x76E JUMP JUMPDEST SWAP6 POP POP PUSH2 0x324 JUMP JUMPDEST PUSH1 0x40 DUP1 DUP4 AND PUSH1 0xFF AND SUB PUSH2 0x234 JUMPI PUSH1 0x40 DUP7 DUP7 DUP1 PUSH2 0x208 SWAP1 PUSH2 0x76E JUMP JUMPDEST SWAP8 POP DUP2 MLOAD DUP2 LT PUSH2 0x21B JUMPI PUSH2 0x21A PUSH2 0x6DC JUMP JUMPDEST JUMPDEST PUSH1 0x20 ADD ADD MLOAD PUSH1 0xF8 SHR PUSH1 0xF8 SHL PUSH1 0xF8 SHR XOR PUSH1 0xFF AND SWAP1 POP PUSH2 0x323 JUMP JUMPDEST PUSH1 0x10 DUP1 DUP4 AND PUSH1 0xFF AND SUB PUSH2 0x2E5 JUMPI PUSH1 0x18 DUP3 PUSH1 0xFF AND SUB PUSH2 0x255 JUMPI PUSH1 0x1 SWAP1 POP PUSH2 0x2D1 JUMP JUMPDEST PUSH1 0x19 DUP3 PUSH1 0xFF AND SUB PUSH2 0x269 JUMPI PUSH1 0x2 SWAP1 POP PUSH2 0x2D0 JUMP JUMPDEST PUSH1 0x1A DUP3 PUSH1 0xFF AND SUB PUSH2 0x27D JUMPI PUSH1 0x4 SWAP1 POP PUSH2 0x2CF JUMP JUMPDEST PUSH1 0x1B DUP3 PUSH1 0xFF AND SUB PUSH2 0x291 JUMPI PUSH1 0x8 SWAP1 POP PUSH2 0x2CE JUMP JUMPDEST DUP2 PUSH1 0x40 MLOAD PUSH32 0xF32E6AA300000000000000000000000000000000000000000000000000000000 DUP2 MSTORE PUSH1 0x4 ADD PUSH2 0x2C5 SWAP2 SWAP1 PUSH2 0x7D2 JUMP JUMPDEST PUSH1 0x40 MLOAD DUP1 SWAP2 SUB SWAP1 REVERT JUMPDEST JUMPDEST JUMPDEST JUMPDEST PUSH1 0x1 DUP6 PUSH2 0x2DE SWAP2 SWAP1 PUSH2 0x73A JUMP JUMPDEST SWAP5 POP PUSH2 0x322 JUMP JUMPDEST DUP2 PUSH1 0x40 MLOAD PUSH32 0x873B12ED00000000000000000000000000000000000000000000000000000000 DUP2 MSTORE PUSH1 0x4 ADD PUSH2 0x319 SWAP2 SWAP1 PUSH2 0x7D2 JUMP JUMPDEST PUSH1 0x40 MLOAD DUP1 SWAP2 SUB SWAP1 REVERT JUMPDEST JUMPDEST JUMPDEST PUSH1 0x20 DUP2 GT ISZERO PUSH2 0x36A JUMPI DUP1 PUSH1 0x40 MLOAD PUSH32 0xC67EEE4B00000000000000000000000000000000000000000000000000000000 DUP2 MSTORE PUSH1 0x4 ADD PUSH2 0x361 SWAP2 SWAP1 PUSH2 0x7FC JUMP JUMPDEST PUSH1 0x40 MLOAD DUP1 SWAP2 SUB SWAP1 REVERT JUMPDEST DUP5 DUP7 PUSH1 0x20 ADD ADD MLOAD SWAP3 POP PUSH1 0x8 DUP2 PUSH2 0x380 SWAP2 SWAP1 PUSH2 0x817 JUMP JUMPDEST PUSH2 0x100 PUSH2 0x38D SWAP2 SWAP1 PUSH2 0x859 JUMP JUMPDEST DUP4 SWAP1 SHR SWAP3 POP DUP1 DUP6 PUSH2 0x39E SWAP2 SWAP1 PUSH2 0x73A JUMP JUMPDEST SWAP4 POP POP POP JUMPDEST SWAP3 POP SWAP3 SWAP1 POP JUMP JUMPDEST PUSH1 0x0 DUP1 PUSH1 0x0 PUSH2 0x3B9 DUP6 DUP6 PUSH2 0x149 JUMP JUMPDEST DUP1 SWAP3 POP DUP2 SWAP5 POP POP POP PUSH16 0xFFFFFFFFFFFFFFFFFFFFFFFFFFFFFFFF DUP1 AND DUP2 GT ISZERO PUSH2 0x40D JUMPI PUSH1 0x40 MLOAD PUSH32 0x4EB4F9FB00000000000000000000000000000000000000000000000000000000 DUP2 MSTORE PUSH1 0x4 ADD PUSH1 0x40 MLOAD DUP1 SWAP2 SUB SWAP1 REVERT JUMPDEST DUP1 SWAP2 POP POP SWAP3 POP SWAP3 SWAP1 POP JUMP JUMPDEST PUSH1 0x0 PUSH1 0x40 MLOAD SWAP1 POP SWAP1 JUMP JUMPDEST PUSH1 0x0 DUP1 REVERT JUMPDEST PUSH1 0x0 DUP1 REVERT JUMPDEST PUSH1 0x0 DUP1 REVERT JUMPDEST PUSH1 0x0 DUP1 REVERT JUMPDEST PUSH1 0x0 PUSH1 0x1F NOT PUSH1 0x1F DUP4 ADD AND SWAP1 POP SWAP2 SWAP1 POP JUMP JUMPDEST PUSH32 0x4E487B7100000000000000000000000000000000000000000000000000000000 PUSH1 0x0 MSTORE PUSH1 0x41 PUSH1 0x4 MSTORE PUSH1 0x24 PUSH1 0x0 REVERT JUMPDEST PUSH2 0x47F DUP3 PUSH2 0x436 JUMP JUMPDEST DUP2 ADD DUP2 DUP2 LT PUSH8 0xFFFFFFFFFFFFFFFF DUP3 GT OR ISZERO PUSH2 0x49E JUMPI PUSH2 0x49D PUSH2 0x447 JUMP JUMPDEST JUMPDEST DUP1 PUSH1 0x40 MSTORE POP POP POP JUMP JUMPDEST PUSH1 0x0 PUSH2 0x4B1 PUSH2 0x418 JUMP JUMPDEST SWAP1 POP PUSH2 0x4BD DUP3 DUP3 PUSH2 0x476 JUMP JUMPDEST SWAP2 SWAP1 POP JUMP JUMPDEST PUSH1 0x0 PUSH8 0xFFFFFFFFFFFFFFFF DUP3 GT ISZERO PUSH2 0x4DD JUMPI PUSH2 0x4DC PUSH2 0x447 JUMP JUMPDEST JUMPDEST PUSH2 0x4E6 DUP3 PUSH2 0x436 JUMP JUMPDEST SWAP1 POP PUSH1 0x20 DUP2 ADD SWAP1 POP SWAP2 SWAP1 POP JUMP JUMPDEST DUP3 DUP2 DUP4 CALLDATACOPY PUSH1 0x0 DUP4 DUP4 ADD MSTORE POP POP POP JUMP JUMPDEST PUSH1 0x0 PUSH2 0x515 PUSH2 0x510 DUP5 PUSH2 0x4C2 JUMP JUMPDEST PUSH2 0x4A7 JUMP JUMPDEST SWAP1 POP DUP3 DUP2 MSTORE PUSH1 0x20 DUP2 ADD DUP5 DUP5 DUP5 ADD GT ISZERO PUSH2 0x531 JUMPI PUSH2 0x530 PUSH2 0x431 JUMP JUMPDEST JUMPDEST PUSH2 0x53C DUP5 DUP3 DUP6 PUSH2 0x4F3 JUMP JUMPDEST POP SWAP4 SWAP3 POP POP POP JUMP JUMPDEST PUSH1 0x0 DUP3 PUSH1 0x1F DUP4 ADD SLT PUSH2 0x559 JUMPI PUSH2 0x558 PUSH2 0x42C JUMP JUMPDEST JUMPDEST DUP2 CALLDATALOAD PUSH2 0x569 DUP5 DUP3 PUSH1 0x20 DUP7 ADD PUSH2 0x502 JUMP JUMPDEST SWAP2 POP POP SWAP3 SWAP2 POP POP JUMP JUMPDEST PUSH1 0x0 DUP2 SWAP1 POP SWAP2 SWAP1 POP JUMP JUMPDEST PUSH2 0x585 DUP2 PUSH2 0x572 JUMP JUMPDEST DUP2 EQ PUSH2 0x590 JUMPI PUSH1 0x0 DUP1 REVERT JUMPDEST POP JUMP JUMPDEST PUSH1 0x0 DUP2 CALLDATALOAD SWAP1 POP PUSH2 0x5A2 DUP2 PUSH2 0x57C JUMP JUMPDEST SWAP3 SWAP2 POP POP JUMP JUMPDEST PUSH1 0x0 DUP1 PUSH1 0x40 DUP4 DUP6 SUB SLT ISZERO PUSH2 0x5BF JUMPI PUSH2 0x5BE PUSH2 0x422 JUMP JUMPDEST JUMPDEST PUSH1 0x0 DUP4 ADD CALLDATALOAD PUSH8 0xFFFFFFFFFFFFFFFF DUP2 GT ISZERO PUSH2 0x5DD JUMPI PUSH2 0x5DC PUSH2 0x427 JUMP JUMPDEST JUMPDEST PUSH2 0x5E9 DUP6 DUP3 DUP7 ADD PUSH2 0x544 JUMP JUMPDEST SWAP3 POP POP PUSH1 0x20 PUSH2 0x5FA DUP6 DUP3 DUP7 ADD PUSH2 0x593 JUMP JUMPDEST SWAP2 POP POP SWAP3 POP SWAP3 SWAP1 POP JUMP JUMPDEST PUSH2 0x60D DUP2 PUSH2 0x572 JUMP JUMPDEST DUP3 MSTORE POP POP JUMP JUMPDEST PUSH1 0x0 PUSH8 0xFFFFFFFFFFFFFFFF DUP3 AND SWAP1 POP SWAP2 SWAP1 POP JUMP JUMPDEST PUSH2 0x630 DUP2 PUSH2 0x613 JUMP JUMPDEST DUP3 MSTORE POP POP JUMP JUMPDEST PUSH1 0x0 PUSH1 0x40 DUP3 ADD SWAP1 POP PUSH2 0x64B PUSH1 0x0 DUP4 ADD DUP6 PUSH2 0x604 JUMP JUMPDEST PUSH2 0x658 PUSH1 0x20 DUP4 ADD DUP5 PUSH2 0x627 JUMP JUMPDEST SWAP4 SWAP3 POP POP POP JUMP JUMPDEST PUSH1 0x0 PUSH1 0x40 DUP3 ADD SWAP1 POP PUSH2 0x674 PUSH1 0x0 DUP4 ADD DUP6 PUSH2 0x604 JUMP JUMPDEST PUSH2 0x681 PUSH1 0x20 DUP4 ADD DUP5 PUSH2 0x604 JUMP JUMPDEST SWAP4 SWAP3 POP POP POP JUMP JUMPDEST PUSH1 0x0 PUSH16 0xFFFFFFFFFFFFFFFFFFFFFFFFFFFFFFFF DUP3 AND SWAP1 POP SWAP2 SWAP1 POP JUMP JUMPDEST PUSH2 0x6AD DUP2 PUSH2 0x688 JUMP JUMPDEST DUP3 MSTORE POP POP JUMP JUMPDEST PUSH1 0x0 PUSH1 0x40 DUP3 ADD SWAP1 POP PUSH2 0x6C8 PUSH1 0x0 DUP4 ADD DUP6 PUSH2 0x604 JUMP JUMPDEST PUSH2 0x6D5 PUSH1 0x20 DUP4 ADD DUP5 PUSH2 0x6A4 JUMP JUMPDEST SWAP4 SWAP3 POP POP POP JUMP JUMPDEST PUSH32 0x4E487B7100000000000000000000000000000000000000000000000000000000 PUSH1 0x0 MSTORE PUSH1 0x32 PUSH1 0x4 MSTORE PUSH1 0x24 PUSH1 0x0 REVERT JUMPDEST PUSH32 0x4E487B7100000000000000000000000000000000000000000000000000000000 PUSH1 0x0 MSTORE PUSH1 0x11 PUSH1 0x4 MSTORE PUSH1 0x24 PUSH1 0x0 REVERT JUMPDEST PUSH1 0x0 PUSH2 0x745 DUP3 PUSH2 0x572 JUMP JUMPDEST SWAP2 POP PUSH2 0x750 DUP4 PUSH2 0x572 JUMP JUMPDEST SWAP3 POP DUP3 DUP3 ADD SWAP1 POP DUP1 DUP3 GT ISZERO PUSH2 0x768 JUMPI PUSH2 0x767 PUSH2 0x70B JUMP JUMPDEST JUMPDEST SWAP3 SWAP2 POP POP JUMP JUMPDEST PUSH1 0x0 PUSH2 0x779 DUP3 PUSH2 0x572 JUMP JUMPDEST SWAP2 POP PUSH32 0xFFFFFFFFFFFFFFFFFFFFFFFFFFFFFFFFFFFFFFFFFFFFFFFFFFFFFFFFFFFFFFFF DUP3 SUB PUSH2 0x7AB JUMPI PUSH2 0x7AA PUSH2 0x70B JUMP JUMPDEST JUMPDEST PUSH1 0x1 DUP3 ADD SWAP1 POP SWAP2 SWAP1 POP JUMP JUMPDEST PUSH1 0x0 PUSH1 0xFF DUP3 AND SWAP1 POP SWAP2 SWAP1 POP JUMP JUMPDEST PUSH2 0x7CC DUP2 PUSH2 0x7B6 JUMP JUMPDEST DUP3 MSTORE POP POP JUMP JUMPDEST PUSH1 0x0 PUSH1 0x20 DUP3 ADD SWAP1 POP PUSH2 0x7E7 PUSH1 0x0 DUP4 ADD DUP5 PUSH2 0x7C3 JUMP JUMPDEST SWAP3 SWAP2 POP POP JUMP JUMPDEST PUSH2 0x7F6 DUP2 PUSH2 0x572 JUMP JUMPDEST DUP3 MSTORE POP POP JUMP JUMPDEST PUSH1 0x0 PUSH1 0x20 DUP3 ADD SWAP1 POP PUSH2 0x811 PUSH1 0x0 DUP4 ADD DUP5 PUSH2 0x7ED JUMP JUMPDEST SWAP3 SWAP2 POP POP JUMP JUMPDEST PUSH1 0x0 PUSH2 0x822 DUP3 PUSH2 0x572 JUMP JUMPDEST SWAP2 POP PUSH2 0x82D DUP4 PUSH2 0x572 JUMP JUMPDEST SWAP3 POP DUP3 DUP3 MUL PUSH2 0x83B DUP2 PUSH2 0x572 JUMP JUMPDEST SWAP2 POP DUP3 DUP3 DIV DUP5 EQ DUP4 ISZERO OR PUSH2 0x852 JUMPI PUSH2 0x851 PUSH2 0x70B JUMP JUMPDEST JUMPDEST POP SWAP3 SWAP2 POP POP JUMP JUMPDEST PUSH1 0x0 PUSH2 0x864 DUP3 PUSH2 0x572 JUMP JUMPDEST SWAP2 POP PUSH2 0x86F DUP4 PUSH2 0x572 JUMP JUMPDEST SWAP3 POP DUP3 DUP3 SUB SWAP1 POP DUP2 DUP2 GT ISZERO PUSH2 0x887 JUMPI PUSH2 0x886 PUSH2 0x70B JUMP JUMPDEST JUMPDEST SWAP3 SWAP2 POP POP JUMP INVALID LOG2 PUSH5 0x6970667358 0x22 SLT KECCAK256 0xB8 0xC3 PUSH4 0xBBFEDFED 0xD4 DUP9 0x49 0xE 0xCB BALANCE CREATE 0xFC REVERT CREATE2 0x1E PUSH21 0x2A9013A815A8C6728ACD45613364736F6C63430008 SGT STOP CALLER "},"methodIdentifiers":{"_parseCBORUint(bytes,uint256)":"0eb503ca","_parseCBORUint128(bytes,uint256)":"21d0f1e4","_parseCBORUint64(bytes,uint256)":"07099c9c"}}}}}