{"contracts/Oracle.sol":{"Oracle":{"abi":[{"inputs":[{"internalType":"bytes21","name":"_roflAppID","type":"bytes21"},{"internalType":"uint8","name":"_threshold","type":"uint8"}],"stateMutability":"nonpayable","type":"constructor"},{"inputs":[],"name":"RoflOriginNotAuthorizedForApp","type":"error"},{"inputs":[],"name":"SubcallError","type":"error"},{"inputs":[],"name":"getLastObservation","outputs":[{"internalType":"uint128","name":"_value","type":"uint128"},{"internalType":"uint256","name":"_block","type":"uint256"}],"stateMutability":"view","type":"function"},{"inputs":[],"name":"roflAppID","outputs":[{"internalType":"bytes21","name":"","type":"bytes21"}],"stateMutability":"view","type":"function"},{"inputs":[{"internalType":"uint128","name":"_value","type":"uint128"}],"name":"submitObservation","outputs":[],"stateMutability":"nonpayable","type":"function"},{"inputs":[],"name":"threshold","outputs":[{"internalType":"uint8","name":"","type":"uint8"}],"stateMutability":"view","type":"function"}],"evm":{"bytecode":{"linkReferences":{},"object":"60806040523480156200001157600080fd5b5060405162000f0e38038062000f0e8339818101604052810190620000379190620001b9565b60008160ff161162000080576040517f08c379a0000000000000000000000000000000000000000000000000000000008152600401620000779062000261565b60405180910390fd5b81600060016101000a81548174ffffffffffffffffffffffffffffffffffffffffff021916908360581c0217905550806000806101000a81548160ff021916908360ff1602179055506000600260000160006101000a8154816fffffffffffffffffffffffffffffffff02191690836fffffffffffffffffffffffffffffffff1602179055506000600260010181905550505062000283565b600080fd5b60007fffffffffffffffffffffffffffffffffffffffffff000000000000000000000082169050919050565b62000155816200011e565b81146200016157600080fd5b50565b60008151905062000175816200014a565b92915050565b600060ff82169050919050565b62000193816200017b565b81146200019f57600080fd5b50565b600081519050620001b38162000188565b92915050565b60008060408385031215620001d357620001d262000119565b5b6000620001e38582860162000164565b9250506020620001f685828601620001a2565b9150509250929050565b600082825260208201905092915050565b7f496e76616c6964207468726573686f6c64000000000000000000000000000000600082015250565b60006200024960118362000200565b9150620002568262000211565b602082019050919050565b600060208201905081810360008301526200027c816200023a565b9050919050565b610c7b80620002936000396000f3fe608060405234801561001057600080fd5b506004361061004c5760003560e01c806342cde4e814610051578063dae1ee1f1461006f578063efae93df1461008b578063f29f4110146100a9575b600080fd5b6100596100c8565b6040516100669190610585565b60405180910390f35b610089600480360381019061008491906105fc565b6100d9565b005b61009361027b565b6040516100a09190610664565b60405180910390f35b6100b161028e565b6040516100bf9291906106a7565b60405180910390f35b60008054906101000a900460ff1681565b6100f1600060019054906101000a900460581b610314565b60018190806001815401808255809150506001900390600052602060002090600291828204019190066010029091909190916101000a8154816fffffffffffffffffffffffffffffffff02191690836fffffffffffffffffffffffffffffffff16021790555060008054906101000a900460ff1660ff1660018054905010610278576000805b6001805490508110156101fc5760018181548110610198576101976106d0565b5b90600052602060002090600291828204019190066010029054906101000a90046fffffffffffffffffffffffffffffffff166fffffffffffffffffffffffffffffffff16826101e7919061072e565b915080806101f490610762565b915050610177565b506001805490506fffffffffffffffffffffffffffffffff168161022091906107d9565b905080600260000160006101000a8154816fffffffffffffffffffffffffffffffff02191690836fffffffffffffffffffffffffffffffff16021790555043600260010181905550600160006102769190610524565b505b50565b600060019054906101000a900460581b81565b60008043600a6002600101546102a4919061072e565b116102e4576040517f08c379a00000000000000000000000000000000000000000000000000000000081526004016102db90610867565b60405180910390fd5b600260000160009054906101000a90046fffffffffffffffffffffffffffffffff16915060026001015490509091565b6000806103756040518060400160405280601781526020017f726f666c2e4973417574686f72697a65644f726967696e0000000000000000008152508460405160200161036191906108ff565b604051602081830303815290604052610420565b9150915060008267ffffffffffffffff1614158061039557506001815114155b806103e4575060f560f81b816000815181106103b4576103b36106d0565b5b602001015160f81c60f81b7effffffffffffffffffffffffffffffffffffffffffffffffffffffffffffff191614155b1561041b576040517f6890282f00000000000000000000000000000000000000000000000000000000815260040160405180910390fd5b505050565b6000606060008073010000000000000000000000000000000000010373ffffffffffffffffffffffffffffffffffffffff1686866040516020016104659291906109f9565b6040516020818303038152906040526040516104819190610a6c565b6000604051808303816000865af19150503d80600081146104be576040519150601f19603f3d011682016040523d82523d6000602084013e6104c3565b606091505b5091509150816104ff576040517f902e94f800000000000000000000000000000000000000000000000000000000815260040160405180910390fd5b808060200190518101906105139190610be9565b809450819550505050509250929050565b508054600082556001016002900490600052602060002090810190610549919061054c565b50565b5b8082111561056557600081600090555060010161054d565b5090565b600060ff82169050919050565b61057f81610569565b82525050565b600060208201905061059a6000830184610576565b92915050565b6000604051905090565b600080fd5b600080fd5b60006fffffffffffffffffffffffffffffffff82169050919050565b6105d9816105b4565b81146105e457600080fd5b50565b6000813590506105f6816105d0565b92915050565b600060208284031215610612576106116105aa565b5b6000610620848285016105e7565b91505092915050565b60007fffffffffffffffffffffffffffffffffffffffffff000000000000000000000082169050919050565b61065e81610629565b82525050565b60006020820190506106796000830184610655565b92915050565b610688816105b4565b82525050565b6000819050919050565b6106a18161068e565b82525050565b60006040820190506106bc600083018561067f565b6106c96020830184610698565b9392505050565b7f4e487b7100000000000000000000000000000000000000000000000000000000600052603260045260246000fd5b7f4e487b7100000000000000000000000000000000000000000000000000000000600052601160045260246000fd5b60006107398261068e565b91506107448361068e565b925082820190508082111561075c5761075b6106ff565b5b92915050565b600061076d8261068e565b91507fffffffffffffffffffffffffffffffffffffffffffffffffffffffffffffffff820361079f5761079e6106ff565b5b600182019050919050565b7f4e487b7100000000000000000000000000000000000000000000000000000000600052601260045260246000fd5b60006107e48261068e565b91506107ef8361068e565b9250826107ff576107fe6107aa565b5b828204905092915050565b600082825260208201905092915050565b7f4e6f206f62736572766174696f6e20617661696c61626c650000000000000000600082015250565b600061085160188361080a565b915061085c8261081b565b602082019050919050565b6000602082019050818103600083015261088081610844565b9050919050565b600081905092915050565b7f5500000000000000000000000000000000000000000000000000000000000000600082015250565b60006108c8600183610887565b91506108d382610892565b600182019050919050565b6000819050919050565b6108f96108f482610629565b6108de565b82525050565b600061090a826108bb565b915061091682846108e8565b60158201915081905092915050565b600081519050919050565b60005b8381101561094e578082015181840152602081019050610933565b60008484015250505050565b6000601f19601f8301169050919050565b600061097682610925565b610980818561080a565b9350610990818560208601610930565b6109998161095a565b840191505092915050565b600081519050919050565b600082825260208201905092915050565b60006109cb826109a4565b6109d581856109af565b93506109e5818560208601610930565b6109ee8161095a565b840191505092915050565b60006040820190508181036000830152610a13818561096b565b90508181036020830152610a2781846109c0565b90509392505050565b600081905092915050565b6000610a46826109a4565b610a508185610a30565b9350610a60818560208601610930565b80840191505092915050565b6000610a788284610a3b565b915081905092915050565b600067ffffffffffffffff82169050919050565b610aa081610a83565b8114610aab57600080fd5b50565b600081519050610abd81610a97565b92915050565b600080fd5b600080fd5b7f4e487b7100000000000000000000000000000000000000000000000000000000600052604160045260246000fd5b610b058261095a565b810181811067ffffffffffffffff82111715610b2457610b23610acd565b5b80604052505050565b6000610b376105a0565b9050610b438282610afc565b919050565b600067ffffffffffffffff821115610b6357610b62610acd565b5b610b6c8261095a565b9050602081019050919050565b6000610b8c610b8784610b48565b610b2d565b905082815260208101848484011115610ba857610ba7610ac8565b5b610bb3848285610930565b509392505050565b600082601f830112610bd057610bcf610ac3565b5b8151610be0848260208601610b79565b91505092915050565b60008060408385031215610c0057610bff6105aa565b5b6000610c0e85828601610aae565b925050602083015167ffffffffffffffff811115610c2f57610c2e6105af565b5b610c3b85828601610bbb565b915050925092905056fea2646970667358221220e6adb9b826abb0476bce15d4935f76673979f8421cab5865e1b510949641d26d64736f6c63430008130033","opcodes":"PUSH1 0x80 PUSH1 0x40 MSTORE CALLVALUE DUP1 ISZERO PUSH3 0x11 JUMPI PUSH1 0x0 DUP1 REVERT JUMPDEST POP PUSH1 0x40 MLOAD PUSH3 0xF0E CODESIZE SUB DUP1 PUSH3 0xF0E DUP4 CODECOPY DUP2 DUP2 ADD PUSH1 0x40 MSTORE DUP2 ADD SWAP1 PUSH3 0x37 SWAP2 SWAP1 PUSH3 0x1B9 JUMP JUMPDEST PUSH1 0x0 DUP2 PUSH1 0xFF AND GT PUSH3 0x80 JUMPI PUSH1 0x40 MLOAD PUSH32 0x8C379A000000000000000000000000000000000000000000000000000000000 DUP2 MSTORE PUSH1 0x4 ADD PUSH3 0x77 SWAP1 PUSH3 0x261 JUMP JUMPDEST PUSH1 0x40 MLOAD DUP1 SWAP2 SUB SWAP1 REVERT JUMPDEST DUP2 PUSH1 0x0 PUSH1 0x1 PUSH2 0x100 EXP DUP2 SLOAD DUP2 PUSH21 0xFFFFFFFFFFFFFFFFFFFFFFFFFFFFFFFFFFFFFFFFFF MUL NOT AND SWAP1 DUP4 PUSH1 0x58 SHR MUL OR SWAP1 SSTORE POP DUP1 PUSH1 0x0 DUP1 PUSH2 0x100 EXP DUP2 SLOAD DUP2 PUSH1 0xFF MUL NOT AND SWAP1 DUP4 PUSH1 0xFF AND MUL OR SWAP1 SSTORE POP PUSH1 0x0 PUSH1 0x2 PUSH1 0x0 ADD PUSH1 0x0 PUSH2 0x100 EXP DUP2 SLOAD DUP2 PUSH16 0xFFFFFFFFFFFFFFFFFFFFFFFFFFFFFFFF MUL NOT AND SWAP1 DUP4 PUSH16 0xFFFFFFFFFFFFFFFFFFFFFFFFFFFFFFFF AND MUL OR SWAP1 SSTORE POP PUSH1 0x0 PUSH1 0x2 PUSH1 0x1 ADD DUP2 SWAP1 SSTORE POP POP POP PUSH3 0x283 JUMP JUMPDEST PUSH1 0x0 DUP1 REVERT JUMPDEST PUSH1 0x0 PUSH32 0xFFFFFFFFFFFFFFFFFFFFFFFFFFFFFFFFFFFFFFFFFF0000000000000000000000 DUP3 AND SWAP1 POP SWAP2 SWAP1 POP JUMP JUMPDEST PUSH3 0x155 DUP2 PUSH3 0x11E JUMP JUMPDEST DUP2 EQ PUSH3 0x161 JUMPI PUSH1 0x0 DUP1 REVERT JUMPDEST POP JUMP JUMPDEST PUSH1 0x0 DUP2 MLOAD SWAP1 POP PUSH3 0x175 DUP2 PUSH3 0x14A JUMP JUMPDEST SWAP3 SWAP2 POP POP JUMP JUMPDEST PUSH1 0x0 PUSH1 0xFF DUP3 AND SWAP1 POP SWAP2 SWAP1 POP JUMP JUMPDEST PUSH3 0x193 DUP2 PUSH3 0x17B JUMP JUMPDEST DUP2 EQ PUSH3 0x19F JUMPI PUSH1 0x0 DUP1 REVERT JUMPDEST POP JUMP JUMPDEST PUSH1 0x0 DUP2 MLOAD SWAP1 POP PUSH3 0x1B3 DUP2 PUSH3 0x188 JUMP JUMPDEST SWAP3 SWAP2 POP POP JUMP JUMPDEST PUSH1 0x0 DUP1 PUSH1 0x40 DUP4 DUP6 SUB SLT ISZERO PUSH3 0x1D3 JUMPI PUSH3 0x1D2 PUSH3 0x119 JUMP JUMPDEST JUMPDEST PUSH1 0x0 PUSH3 0x1E3 DUP6 DUP3 DUP7 ADD PUSH3 0x164 JUMP JUMPDEST SWAP3 POP POP PUSH1 0x20 PUSH3 0x1F6 DUP6 DUP3 DUP7 ADD PUSH3 0x1A2 JUMP JUMPDEST SWAP2 POP POP SWAP3 POP SWAP3 SWAP1 POP JUMP JUMPDEST PUSH1 0x0 DUP3 DUP3 MSTORE PUSH1 0x20 DUP3 ADD SWAP1 POP SWAP3 SWAP2 POP POP JUMP JUMPDEST PUSH32 0x496E76616C6964207468726573686F6C64000000000000000000000000000000 PUSH1 0x0 DUP3 ADD MSTORE POP JUMP JUMPDEST PUSH1 0x0 PUSH3 0x249 PUSH1 0x11 DUP4 PUSH3 0x200 JUMP JUMPDEST SWAP2 POP PUSH3 0x256 DUP3 PUSH3 0x211 JUMP JUMPDEST PUSH1 0x20 DUP3 ADD SWAP1 POP SWAP2 SWAP1 POP JUMP JUMPDEST PUSH1 0x0 PUSH1 0x20 DUP3 ADD SWAP1 POP DUP2 DUP2 SUB PUSH1 0x0 DUP4 ADD MSTORE PUSH3 0x27C DUP2 PUSH3 0x23A JUMP JUMPDEST SWAP1 POP SWAP2 SWAP1 POP JUMP JUMPDEST PUSH2 0xC7B DUP1 PUSH3 0x293 PUSH1 0x0 CODECOPY PUSH1 0x0 RETURN INVALID PUSH1 0x80 PUSH1 0x40 MSTORE CALLVALUE DUP1 ISZERO PUSH2 0x10 JUMPI PUSH1 0x0 DUP1 REVERT JUMPDEST POP PUSH1 0x4 CALLDATASIZE LT PUSH2 0x4C JUMPI PUSH1 0x0 CALLDATALOAD PUSH1 0xE0 SHR DUP1 PUSH4 0x42CDE4E8 EQ PUSH2 0x51 JUMPI DUP1 PUSH4 0xDAE1EE1F EQ PUSH2 0x6F JUMPI DUP1 PUSH4 0xEFAE93DF EQ PUSH2 0x8B JUMPI DUP1 PUSH4 0xF29F4110 EQ PUSH2 0xA9 JUMPI JUMPDEST PUSH1 0x0 DUP1 REVERT JUMPDEST PUSH2 0x59 PUSH2 0xC8 JUMP JUMPDEST PUSH1 0x40 MLOAD PUSH2 0x66 SWAP2 SWAP1 PUSH2 0x585 JUMP JUMPDEST PUSH1 0x40 MLOAD DUP1 SWAP2 SUB SWAP1 RETURN JUMPDEST PUSH2 0x89 PUSH1 0x4 DUP1 CALLDATASIZE SUB DUP2 ADD SWAP1 PUSH2 0x84 SWAP2 SWAP1 PUSH2 0x5FC JUMP JUMPDEST PUSH2 0xD9 JUMP JUMPDEST STOP JUMPDEST PUSH2 0x93 PUSH2 0x27B JUMP JUMPDEST PUSH1 0x40 MLOAD PUSH2 0xA0 SWAP2 SWAP1 PUSH2 0x664 JUMP JUMPDEST PUSH1 0x40 MLOAD DUP1 SWAP2 SUB SWAP1 RETURN JUMPDEST PUSH2 0xB1 PUSH2 0x28E JUMP JUMPDEST PUSH1 0x40 MLOAD PUSH2 0xBF SWAP3 SWAP2 SWAP1 PUSH2 0x6A7 JUMP JUMPDEST PUSH1 0x40 MLOAD DUP1 SWAP2 SUB SWAP1 RETURN JUMPDEST PUSH1 0x0 DUP1 SLOAD SWAP1 PUSH2 0x100 EXP SWAP1 DIV PUSH1 0xFF AND DUP2 JUMP JUMPDEST PUSH2 0xF1 PUSH1 0x0 PUSH1 0x1 SWAP1 SLOAD SWAP1 PUSH2 0x100 EXP SWAP1 DIV PUSH1 0x58 SHL PUSH2 0x314 JUMP JUMPDEST PUSH1 0x1 DUP2 SWAP1 DUP1 PUSH1 0x1 DUP2 SLOAD ADD DUP1 DUP3 SSTORE DUP1 SWAP2 POP POP PUSH1 0x1 SWAP1 SUB SWAP1 PUSH1 0x0 MSTORE PUSH1 0x20 PUSH1 0x0 KECCAK256 SWAP1 PUSH1 0x2 SWAP2 DUP3 DUP3 DIV ADD SWAP2 SWAP1 MOD PUSH1 0x10 MUL SWAP1 SWAP2 SWAP1 SWAP2 SWAP1 SWAP2 PUSH2 0x100 EXP DUP2 SLOAD DUP2 PUSH16 0xFFFFFFFFFFFFFFFFFFFFFFFFFFFFFFFF MUL NOT AND SWAP1 DUP4 PUSH16 0xFFFFFFFFFFFFFFFFFFFFFFFFFFFFFFFF AND MUL OR SWAP1 SSTORE POP PUSH1 0x0 DUP1 SLOAD SWAP1 PUSH2 0x100 EXP SWAP1 DIV PUSH1 0xFF AND PUSH1 0xFF AND PUSH1 0x1 DUP1 SLOAD SWAP1 POP LT PUSH2 0x278 JUMPI PUSH1 0x0 DUP1 JUMPDEST PUSH1 0x1 DUP1 SLOAD SWAP1 POP DUP2 LT ISZERO PUSH2 0x1FC JUMPI PUSH1 0x1 DUP2 DUP2 SLOAD DUP2 LT PUSH2 0x198 JUMPI PUSH2 0x197 PUSH2 0x6D0 JUMP JUMPDEST JUMPDEST SWAP1 PUSH1 0x0 MSTORE PUSH1 0x20 PUSH1 0x0 KECCAK256 SWAP1 PUSH1 0x2 SWAP2 DUP3 DUP3 DIV ADD SWAP2 SWAP1 MOD PUSH1 0x10 MUL SWAP1 SLOAD SWAP1 PUSH2 0x100 EXP SWAP1 DIV PUSH16 0xFFFFFFFFFFFFFFFFFFFFFFFFFFFFFFFF AND PUSH16 0xFFFFFFFFFFFFFFFFFFFFFFFFFFFFFFFF AND DUP3 PUSH2 0x1E7 SWAP2 SWAP1 PUSH2 0x72E JUMP JUMPDEST SWAP2 POP DUP1 DUP1 PUSH2 0x1F4 SWAP1 PUSH2 0x762 JUMP JUMPDEST SWAP2 POP POP PUSH2 0x177 JUMP JUMPDEST POP PUSH1 0x1 DUP1 SLOAD SWAP1 POP PUSH16 0xFFFFFFFFFFFFFFFFFFFFFFFFFFFFFFFF AND DUP2 PUSH2 0x220 SWAP2 SWAP1 PUSH2 0x7D9 JUMP JUMPDEST SWAP1 POP DUP1 PUSH1 0x2 PUSH1 0x0 ADD PUSH1 0x0 PUSH2 0x100 EXP DUP2 SLOAD DUP2 PUSH16 0xFFFFFFFFFFFFFFFFFFFFFFFFFFFFFFFF MUL NOT AND SWAP1 DUP4 PUSH16 0xFFFFFFFFFFFFFFFFFFFFFFFFFFFFFFFF AND MUL OR SWAP1 SSTORE POP NUMBER PUSH1 0x2 PUSH1 0x1 ADD DUP2 SWAP1 SSTORE POP PUSH1 0x1 PUSH1 0x0 PUSH2 0x276 SWAP2 SWAP1 PUSH2 0x524 JUMP JUMPDEST POP JUMPDEST POP JUMP JUMPDEST PUSH1 0x0 PUSH1 0x1 SWAP1 SLOAD SWAP1 PUSH2 0x100 EXP SWAP1 DIV PUSH1 0x58 SHL DUP2 JUMP JUMPDEST PUSH1 0x0 DUP1 NUMBER PUSH1 0xA PUSH1 0x2 PUSH1 0x1 ADD SLOAD PUSH2 0x2A4 SWAP2 SWAP1 PUSH2 0x72E JUMP JUMPDEST GT PUSH2 0x2E4 JUMPI PUSH1 0x40 MLOAD PUSH32 0x8C379A000000000000000000000000000000000000000000000000000000000 DUP2 MSTORE PUSH1 0x4 ADD PUSH2 0x2DB SWAP1 PUSH2 0x867 JUMP JUMPDEST PUSH1 0x40 MLOAD DUP1 SWAP2 SUB SWAP1 REVERT JUMPDEST PUSH1 0x2 PUSH1 0x0 ADD PUSH1 0x0 SWAP1 SLOAD SWAP1 PUSH2 0x100 EXP SWAP1 DIV PUSH16 0xFFFFFFFFFFFFFFFFFFFFFFFFFFFFFFFF AND SWAP2 POP PUSH1 0x2 PUSH1 0x1 ADD SLOAD SWAP1 POP SWAP1 SWAP2 JUMP JUMPDEST PUSH1 0x0 DUP1 PUSH2 0x375 PUSH1 0x40 MLOAD DUP1 PUSH1 0x40 ADD PUSH1 0x40 MSTORE DUP1 PUSH1 0x17 DUP2 MSTORE PUSH1 0x20 ADD PUSH32 0x726F666C2E4973417574686F72697A65644F726967696E000000000000000000 DUP2 MSTORE POP DUP5 PUSH1 0x40 MLOAD PUSH1 0x20 ADD PUSH2 0x361 SWAP2 SWAP1 PUSH2 0x8FF JUMP JUMPDEST PUSH1 0x40 MLOAD PUSH1 0x20 DUP2 DUP4 SUB SUB DUP2 MSTORE SWAP1 PUSH1 0x40 MSTORE PUSH2 0x420 JUMP JUMPDEST SWAP2 POP SWAP2 POP PUSH1 0x0 DUP3 PUSH8 0xFFFFFFFFFFFFFFFF AND EQ ISZERO DUP1 PUSH2 0x395 JUMPI POP PUSH1 0x1 DUP2 MLOAD EQ ISZERO JUMPDEST DUP1 PUSH2 0x3E4 JUMPI POP PUSH1 0xF5 PUSH1 0xF8 SHL DUP2 PUSH1 0x0 DUP2 MLOAD DUP2 LT PUSH2 0x3B4 JUMPI PUSH2 0x3B3 PUSH2 0x6D0 JUMP JUMPDEST JUMPDEST PUSH1 0x20 ADD ADD MLOAD PUSH1 0xF8 SHR PUSH1 0xF8 SHL PUSH31 0xFFFFFFFFFFFFFFFFFFFFFFFFFFFFFFFFFFFFFFFFFFFFFFFFFFFFFFFFFFFFFF NOT AND EQ ISZERO JUMPDEST ISZERO PUSH2 0x41B JUMPI PUSH1 0x40 MLOAD PUSH32 0x6890282F00000000000000000000000000000000000000000000000000000000 DUP2 MSTORE PUSH1 0x4 ADD PUSH1 0x40 MLOAD DUP1 SWAP2 SUB SWAP1 REVERT JUMPDEST POP POP POP JUMP JUMPDEST PUSH1 0x0 PUSH1 0x60 PUSH1 0x0 DUP1 PUSH20 0x100000000000000000000000000000000000103 PUSH20 0xFFFFFFFFFFFFFFFFFFFFFFFFFFFFFFFFFFFFFFFF AND DUP7 DUP7 PUSH1 0x40 MLOAD PUSH1 0x20 ADD PUSH2 0x465 SWAP3 SWAP2 SWAP1 PUSH2 0x9F9 JUMP JUMPDEST PUSH1 0x40 MLOAD PUSH1 0x20 DUP2 DUP4 SUB SUB DUP2 MSTORE SWAP1 PUSH1 0x40 MSTORE PUSH1 0x40 MLOAD PUSH2 0x481 SWAP2 SWAP1 PUSH2 0xA6C JUMP JUMPDEST PUSH1 0x0 PUSH1 0x40 MLOAD DUP1 DUP4 SUB DUP2 PUSH1 0x0 DUP7 GAS CALL SWAP2 POP POP RETURNDATASIZE DUP1 PUSH1 0x0 DUP2 EQ PUSH2 0x4BE JUMPI PUSH1 0x40 MLOAD SWAP2 POP PUSH1 0x1F NOT PUSH1 0x3F RETURNDATASIZE ADD AND DUP3 ADD PUSH1 0x40 MSTORE RETURNDATASIZE DUP3 MSTORE RETURNDATASIZE PUSH1 0x0 PUSH1 0x20 DUP5 ADD RETURNDATACOPY PUSH2 0x4C3 JUMP JUMPDEST PUSH1 0x60 SWAP2 POP JUMPDEST POP SWAP2 POP SWAP2 POP DUP2 PUSH2 0x4FF JUMPI PUSH1 0x40 MLOAD PUSH32 0x902E94F800000000000000000000000000000000000000000000000000000000 DUP2 MSTORE PUSH1 0x4 ADD PUSH1 0x40 MLOAD DUP1 SWAP2 SUB SWAP1 REVERT JUMPDEST DUP1 DUP1 PUSH1 0x20 ADD SWAP1 MLOAD DUP2 ADD SWAP1 PUSH2 0x513 SWAP2 SWAP1 PUSH2 0xBE9 JUMP JUMPDEST DUP1 SWAP5 POP DUP2 SWAP6 POP POP POP POP POP SWAP3 POP SWAP3 SWAP1 POP JUMP JUMPDEST POP DUP1 SLOAD PUSH1 0x0 DUP3 SSTORE PUSH1 0x1 ADD PUSH1 0x2 SWAP1 DIV SWAP1 PUSH1 0x0 MSTORE PUSH1 0x20 PUSH1 0x0 KECCAK256 SWAP1 DUP2 ADD SWAP1 PUSH2 0x549 SWAP2 SWAP1 PUSH2 0x54C JUMP JUMPDEST POP JUMP JUMPDEST JUMPDEST DUP1 DUP3 GT ISZERO PUSH2 0x565 JUMPI PUSH1 0x0 DUP2 PUSH1 0x0 SWAP1 SSTORE POP PUSH1 0x1 ADD PUSH2 0x54D JUMP JUMPDEST POP SWAP1 JUMP JUMPDEST PUSH1 0x0 PUSH1 0xFF DUP3 AND SWAP1 POP SWAP2 SWAP1 POP JUMP JUMPDEST PUSH2 0x57F DUP2 PUSH2 0x569 JUMP JUMPDEST DUP3 MSTORE POP POP JUMP JUMPDEST PUSH1 0x0 PUSH1 0x20 DUP3 ADD SWAP1 POP PUSH2 0x59A PUSH1 0x0 DUP4 ADD DUP5 PUSH2 0x576 JUMP JUMPDEST SWAP3 SWAP2 POP POP JUMP JUMPDEST PUSH1 0x0 PUSH1 0x40 MLOAD SWAP1 POP SWAP1 JUMP JUMPDEST PUSH1 0x0 DUP1 REVERT JUMPDEST PUSH1 0x0 DUP1 REVERT JUMPDEST PUSH1 0x0 PUSH16 0xFFFFFFFFFFFFFFFFFFFFFFFFFFFFFFFF DUP3 AND SWAP1 POP SWAP2 SWAP1 POP JUMP JUMPDEST PUSH2 0x5D9 DUP2 PUSH2 0x5B4 JUMP JUMPDEST DUP2 EQ PUSH2 0x5E4 JUMPI PUSH1 0x0 DUP1 REVERT JUMPDEST POP JUMP JUMPDEST PUSH1 0x0 DUP2 CALLDATALOAD SWAP1 POP PUSH2 0x5F6 DUP2 PUSH2 0x5D0 JUMP JUMPDEST SWAP3 SWAP2 POP POP JUMP JUMPDEST PUSH1 0x0 PUSH1 0x20 DUP3 DUP5 SUB SLT ISZERO PUSH2 0x612 JUMPI PUSH2 0x611 PUSH2 0x5AA JUMP JUMPDEST JUMPDEST PUSH1 0x0 PUSH2 0x620 DUP5 DUP3 DUP6 ADD PUSH2 0x5E7 JUMP JUMPDEST SWAP2 POP POP SWAP3 SWAP2 POP POP JUMP JUMPDEST PUSH1 0x0 PUSH32 0xFFFFFFFFFFFFFFFFFFFFFFFFFFFFFFFFFFFFFFFFFF0000000000000000000000 DUP3 AND SWAP1 POP SWAP2 SWAP1 POP JUMP JUMPDEST PUSH2 0x65E DUP2 PUSH2 0x629 JUMP JUMPDEST DUP3 MSTORE POP POP JUMP JUMPDEST PUSH1 0x0 PUSH1 0x20 DUP3 ADD SWAP1 POP PUSH2 0x679 PUSH1 0x0 DUP4 ADD DUP5 PUSH2 0x655 JUMP JUMPDEST SWAP3 SWAP2 POP POP JUMP JUMPDEST PUSH2 0x688 DUP2 PUSH2 0x5B4 JUMP JUMPDEST DUP3 MSTORE POP POP JUMP JUMPDEST PUSH1 0x0 DUP2 SWAP1 POP SWAP2 SWAP1 POP JUMP JUMPDEST PUSH2 0x6A1 DUP2 PUSH2 0x68E JUMP JUMPDEST DUP3 MSTORE POP POP JUMP JUMPDEST PUSH1 0x0 PUSH1 0x40 DUP3 ADD SWAP1 POP PUSH2 0x6BC PUSH1 0x0 DUP4 ADD DUP6 PUSH2 0x67F JUMP JUMPDEST PUSH2 0x6C9 PUSH1 0x20 DUP4 ADD DUP5 PUSH2 0x698 JUMP JUMPDEST SWAP4 SWAP3 POP POP POP JUMP JUMPDEST PUSH32 0x4E487B7100000000000000000000000000000000000000000000000000000000 PUSH1 0x0 MSTORE PUSH1 0x32 PUSH1 0x4 MSTORE PUSH1 0x24 PUSH1 0x0 REVERT JUMPDEST PUSH32 0x4E487B7100000000000000000000000000000000000000000000000000000000 PUSH1 0x0 MSTORE PUSH1 0x11 PUSH1 0x4 MSTORE PUSH1 0x24 PUSH1 0x0 REVERT JUMPDEST PUSH1 0x0 PUSH2 0x739 DUP3 PUSH2 0x68E JUMP JUMPDEST SWAP2 POP PUSH2 0x744 DUP4 PUSH2 0x68E JUMP JUMPDEST SWAP3 POP DUP3 DUP3 ADD SWAP1 POP DUP1 DUP3 GT ISZERO PUSH2 0x75C JUMPI PUSH2 0x75B PUSH2 0x6FF JUMP JUMPDEST JUMPDEST SWAP3 SWAP2 POP POP JUMP JUMPDEST PUSH1 0x0 PUSH2 0x76D DUP3 PUSH2 0x68E JUMP JUMPDEST SWAP2 POP PUSH32 0xFFFFFFFFFFFFFFFFFFFFFFFFFFFFFFFFFFFFFFFFFFFFFFFFFFFFFFFFFFFFFFFF DUP3 SUB PUSH2 0x79F JUMPI PUSH2 0x79E PUSH2 0x6FF JUMP JUMPDEST JUMPDEST PUSH1 0x1 DUP3 ADD SWAP1 POP SWAP2 SWAP1 POP JUMP JUMPDEST PUSH32 0x4E487B7100000000000000000000000000000000000000000000000000000000 PUSH1 0x0 MSTORE PUSH1 0x12 PUSH1 0x4 MSTORE PUSH1 0x24 PUSH1 0x0 REVERT JUMPDEST PUSH1 0x0 PUSH2 0x7E4 DUP3 PUSH2 0x68E JUMP JUMPDEST SWAP2 POP PUSH2 0x7EF DUP4 PUSH2 0x68E JUMP JUMPDEST SWAP3 POP DUP3 PUSH2 0x7FF JUMPI PUSH2 0x7FE PUSH2 0x7AA JUMP JUMPDEST JUMPDEST DUP3 DUP3 DIV SWAP1 POP SWAP3 SWAP2 POP POP JUMP JUMPDEST PUSH1 0x0 DUP3 DUP3 MSTORE PUSH1 0x20 DUP3 ADD SWAP1 POP SWAP3 SWAP2 POP POP JUMP JUMPDEST PUSH32 0x4E6F206F62736572766174696F6E20617661696C61626C650000000000000000 PUSH1 0x0 DUP3 ADD MSTORE POP JUMP JUMPDEST PUSH1 0x0 PUSH2 0x851 PUSH1 0x18 DUP4 PUSH2 0x80A JUMP JUMPDEST SWAP2 POP PUSH2 0x85C DUP3 PUSH2 0x81B JUMP JUMPDEST PUSH1 0x20 DUP3 ADD SWAP1 POP SWAP2 SWAP1 POP JUMP JUMPDEST PUSH1 0x0 PUSH1 0x20 DUP3 ADD SWAP1 POP DUP2 DUP2 SUB PUSH1 0x0 DUP4 ADD MSTORE PUSH2 0x880 DUP2 PUSH2 0x844 JUMP JUMPDEST SWAP1 POP SWAP2 SWAP1 POP JUMP JUMPDEST PUSH1 0x0 DUP2 SWAP1 POP SWAP3 SWAP2 POP POP JUMP JUMPDEST PUSH32 0x5500000000000000000000000000000000000000000000000000000000000000 PUSH1 0x0 DUP3 ADD MSTORE POP JUMP JUMPDEST PUSH1 0x0 PUSH2 0x8C8 PUSH1 0x1 DUP4 PUSH2 0x887 JUMP JUMPDEST SWAP2 POP PUSH2 0x8D3 DUP3 PUSH2 0x892 JUMP JUMPDEST PUSH1 0x1 DUP3 ADD SWAP1 POP SWAP2 SWAP1 POP JUMP JUMPDEST PUSH1 0x0 DUP2 SWAP1 POP SWAP2 SWAP1 POP JUMP JUMPDEST PUSH2 0x8F9 PUSH2 0x8F4 DUP3 PUSH2 0x629 JUMP JUMPDEST PUSH2 0x8DE JUMP JUMPDEST DUP3 MSTORE POP POP JUMP JUMPDEST PUSH1 0x0 PUSH2 0x90A DUP3 PUSH2 0x8BB JUMP JUMPDEST SWAP2 POP PUSH2 0x916 DUP3 DUP5 PUSH2 0x8E8 JUMP JUMPDEST PUSH1 0x15 DUP3 ADD SWAP2 POP DUP2 SWAP1 POP SWAP3 SWAP2 POP POP JUMP JUMPDEST PUSH1 0x0 DUP2 MLOAD SWAP1 POP SWAP2 SWAP1 POP JUMP JUMPDEST PUSH1 0x0 JUMPDEST DUP4 DUP2 LT ISZERO PUSH2 0x94E JUMPI DUP1 DUP3 ADD MLOAD DUP2 DUP5 ADD MSTORE PUSH1 0x20 DUP2 ADD SWAP1 POP PUSH2 0x933 JUMP JUMPDEST PUSH1 0x0 DUP5 DUP5 ADD MSTORE POP POP POP POP JUMP JUMPDEST PUSH1 0x0 PUSH1 0x1F NOT PUSH1 0x1F DUP4 ADD AND SWAP1 POP SWAP2 SWAP1 POP JUMP JUMPDEST PUSH1 0x0 PUSH2 0x976 DUP3 PUSH2 0x925 JUMP JUMPDEST PUSH2 0x980 DUP2 DUP6 PUSH2 0x80A JUMP JUMPDEST SWAP4 POP PUSH2 0x990 DUP2 DUP6 PUSH1 0x20 DUP7 ADD PUSH2 0x930 JUMP JUMPDEST PUSH2 0x999 DUP2 PUSH2 0x95A JUMP JUMPDEST DUP5 ADD SWAP2 POP POP SWAP3 SWAP2 POP POP JUMP JUMPDEST PUSH1 0x0 DUP2 MLOAD SWAP1 POP SWAP2 SWAP1 POP JUMP JUMPDEST PUSH1 0x0 DUP3 DUP3 MSTORE PUSH1 0x20 DUP3 ADD SWAP1 POP SWAP3 SWAP2 POP POP JUMP JUMPDEST PUSH1 0x0 PUSH2 0x9CB DUP3 PUSH2 0x9A4 JUMP JUMPDEST PUSH2 0x9D5 DUP2 DUP6 PUSH2 0x9AF JUMP JUMPDEST SWAP4 POP PUSH2 0x9E5 DUP2 DUP6 PUSH1 0x20 DUP7 ADD PUSH2 0x930 JUMP JUMPDEST PUSH2 0x9EE DUP2 PUSH2 0x95A JUMP JUMPDEST DUP5 ADD SWAP2 POP POP SWAP3 SWAP2 POP POP JUMP JUMPDEST PUSH1 0x0 PUSH1 0x40 DUP3 ADD SWAP1 POP DUP2 DUP2 SUB PUSH1 0x0 DUP4 ADD MSTORE PUSH2 0xA13 DUP2 DUP6 PUSH2 0x96B JUMP JUMPDEST SWAP1 POP DUP2 DUP2 SUB PUSH1 0x20 DUP4 ADD MSTORE PUSH2 0xA27 DUP2 DUP5 PUSH2 0x9C0 JUMP JUMPDEST SWAP1 POP SWAP4 SWAP3 POP POP POP JUMP JUMPDEST PUSH1 0x0 DUP2 SWAP1 POP SWAP3 SWAP2 POP POP JUMP JUMPDEST PUSH1 0x0 PUSH2 0xA46 DUP3 PUSH2 0x9A4 JUMP JUMPDEST PUSH2 0xA50 DUP2 DUP6 PUSH2 0xA30 JUMP JUMPDEST SWAP4 POP PUSH2 0xA60 DUP2 DUP6 PUSH1 0x20 DUP7 ADD PUSH2 0x930 JUMP JUMPDEST DUP1 DUP5 ADD SWAP2 POP POP SWAP3 SWAP2 POP POP JUMP JUMPDEST PUSH1 0x0 PUSH2 0xA78 DUP3 DUP5 PUSH2 0xA3B JUMP JUMPDEST SWAP2 POP DUP2 SWAP1 POP SWAP3 SWAP2 POP POP JUMP JUMPDEST PUSH1 0x0 PUSH8 0xFFFFFFFFFFFFFFFF DUP3 AND SWAP1 POP SWAP2 SWAP1 POP JUMP JUMPDEST PUSH2 0xAA0 DUP2 PUSH2 0xA83 JUMP JUMPDEST DUP2 EQ PUSH2 0xAAB JUMPI PUSH1 0x0 DUP1 REVERT JUMPDEST POP JUMP JUMPDEST PUSH1 0x0 DUP2 MLOAD SWAP1 POP PUSH2 0xABD DUP2 PUSH2 0xA97 JUMP JUMPDEST SWAP3 SWAP2 POP POP JUMP JUMPDEST PUSH1 0x0 DUP1 REVERT JUMPDEST PUSH1 0x0 DUP1 REVERT JUMPDEST PUSH32 0x4E487B7100000000000000000000000000000000000000000000000000000000 PUSH1 0x0 MSTORE PUSH1 0x41 PUSH1 0x4 MSTORE PUSH1 0x24 PUSH1 0x0 REVERT JUMPDEST PUSH2 0xB05 DUP3 PUSH2 0x95A JUMP JUMPDEST DUP2 ADD DUP2 DUP2 LT PUSH8 0xFFFFFFFFFFFFFFFF DUP3 GT OR ISZERO PUSH2 0xB24 JUMPI PUSH2 0xB23 PUSH2 0xACD JUMP JUMPDEST JUMPDEST DUP1 PUSH1 0x40 MSTORE POP POP POP JUMP JUMPDEST PUSH1 0x0 PUSH2 0xB37 PUSH2 0x5A0 JUMP JUMPDEST SWAP1 POP PUSH2 0xB43 DUP3 DUP3 PUSH2 0xAFC JUMP JUMPDEST SWAP2 SWAP1 POP JUMP JUMPDEST PUSH1 0x0 PUSH8 0xFFFFFFFFFFFFFFFF DUP3 GT ISZERO PUSH2 0xB63 JUMPI PUSH2 0xB62 PUSH2 0xACD JUMP JUMPDEST JUMPDEST PUSH2 0xB6C DUP3 PUSH2 0x95A JUMP JUMPDEST SWAP1 POP PUSH1 0x20 DUP2 ADD SWAP1 POP SWAP2 SWAP1 POP JUMP JUMPDEST PUSH1 0x0 PUSH2 0xB8C PUSH2 0xB87 DUP5 PUSH2 0xB48 JUMP JUMPDEST PUSH2 0xB2D JUMP JUMPDEST SWAP1 POP DUP3 DUP2 MSTORE PUSH1 0x20 DUP2 ADD DUP5 DUP5 DUP5 ADD GT ISZERO PUSH2 0xBA8 JUMPI PUSH2 0xBA7 PUSH2 0xAC8 JUMP JUMPDEST JUMPDEST PUSH2 0xBB3 DUP5 DUP3 DUP6 PUSH2 0x930 JUMP JUMPDEST POP SWAP4 SWAP3 POP POP POP JUMP JUMPDEST PUSH1 0x0 DUP3 PUSH1 0x1F DUP4 ADD SLT PUSH2 0xBD0 JUMPI PUSH2 0xBCF PUSH2 0xAC3 JUMP JUMPDEST JUMPDEST DUP2 MLOAD PUSH2 0xBE0 DUP5 DUP3 PUSH1 0x20 DUP7 ADD PUSH2 0xB79 JUMP JUMPDEST SWAP2 POP POP SWAP3 SWAP2 POP POP JUMP JUMPDEST PUSH1 0x0 DUP1 PUSH1 0x40 DUP4 DUP6 SUB SLT ISZERO PUSH2 0xC00 JUMPI PUSH2 0xBFF PUSH2 0x5AA JUMP JUMPDEST JUMPDEST PUSH1 0x0 PUSH2 0xC0E DUP6 DUP3 DUP7 ADD PUSH2 0xAAE JUMP JUMPDEST SWAP3 POP POP PUSH1 0x20 DUP4 ADD MLOAD PUSH8 0xFFFFFFFFFFFFFFFF DUP2 GT ISZERO PUSH2 0xC2F JUMPI PUSH2 0xC2E PUSH2 0x5AF JUMP JUMPDEST JUMPDEST PUSH2 0xC3B DUP6 DUP3 DUP7 ADD PUSH2 0xBBB JUMP JUMPDEST SWAP2 POP POP SWAP3 POP SWAP3 SWAP1 POP JUMP INVALID LOG2 PUSH5 0x6970667358 0x22 SLT KECCAK256 0xE6 0xAD 0xB9 0xB8 0x26 0xAB 0xB0 SELFBALANCE PUSH12 0xCE15D4935F76673979F8421C 0xAB PC PUSH6 0xE1B510949641 0xD2 PUSH14 0x64736F6C63430008130033000000 "},"methodIdentifiers":{"getLastObservation()":"f29f4110","roflAppID()":"efae93df","submitObservation(uint128)":"dae1ee1f","threshold()":"42cde4e8"}}}}}